:020000023000CC
:10E000000D9472F00D9493F00D9493F00D9493F0A1
:10E010000D9493F00D9493F00D9493F00D9493F070
:10E020000D9493F00D9493F00D9493F00D9493F060
:10E030000D9493F00D9493F00D9493F00D9493F050
:10E040000D9493F00D9493F00D9493F00D9493F040
:10E050000D9493F00D9493F00D9493F00D9493F030
:10E060000D9493F00D9493F00D9493F00D9493F020
:10E070000D9493F00D9493F00D9493F00D9493F010
:10E080000D9493F00D9493F00D9493F00D9493F000
:10E090000D9493F00D9493F00D9493F00D9493F0F0
:10E0A0000D9493F00D9493F00D9493F00D9493F0E0
:10E0B0000D9493F00D9493F00D9493F00D9493F0D0
:10E0C0000D9493F00D9493F00D9493F00D9493F0C0
:10E0D0000D9493F00D9493F00D9493F00D9493F0B0
:10E0E0000D9493F011241FBECFEFD1E2DEBFCDBF60
:10E0F00001E00CBF14E0A0E0B2E0ECE9FFEE03E0C9
:10E100000BBF02C007900D92A839B107D9F724E0E0
:10E11000A8E9B4E001C01D92AF3BB207E1F70F944C
:10E12000A7F40D94CCF70D9400F002D0289801C00C
:10E13000289A8FEF98E087FD2A9A87FF2A98880F00
:10E140001B998395299A29989A95A9F708958BBFC9
:10E15000292F237020935C00E62FF72F1994089540
:10E16000E0919904F0919A04DC01129786819781DD
:10E170000297A817B90768F4228130E00F944CF792
:10E180002089318942895389620F731F841F951F2B
:10E19000089580E090E0BC0108959091C00095FF43
:10E1A000FCCF8093C6000895CF93DF9300D0CDB706
:10E1B000DEB789839A831B82E981FA818B81E80F1C
:10E1C000F11D8081811106C00F900F900F90DF919B
:10E1D000CF9108950F94CDF08B818F5F8B83ECCF1F
:10E1E00090E0409A2FEF31EE44E021503040404023
:10E1F000E1F700C0000040982FEF31EE44E02150DD
:10E2000030404040E1F700C000009F5F8913E9CF34
:10E210000895CF93DF9300D00F920F92CDB7DEB762
:10E220008D8349835A836B837C8387FF0AC060E0B8
:10E2300070E0AB0187E70F9409F1823040F589E681
:10E240008D830F9495F08D810F949AF08C810F94AB
:10E250009AF08B810F949AF08A810F949AF08981B9
:10E260000F949AF09D8185E9903421F081E09834F3
:10E2700009F487E80F949AF08AE089830F9499F063
:10E2800087FF05C09981915099839111F7CF0F9025
:10E290000F900F900F900F90DF91CF910895CF9234
:10E2A000DF92EF92FF920F931F93CF93DF9300D0F3
:10E2B0000F92CDB7DEB7209A229A219A23982B9AF3
:10E2C00084E6EFE8F1E03197F1F700C000008150FB
:10E2D000C1F71AE00F9498F01150E1F760E070E098
:10E2E000AB0180E40F9409F1182F8130A9F010E000
:10E2F000109398040F9498F081E0111180E00F9032
:10E300000F900F900F90DF91CF911F910F91FF9081
:10E31000EF90DF90CF9008954AEA51E060E070E01E
:10E3200088E40F9409F1813009F045C08E010F5F38
:10E330001F4F6E01F5E0CF0ED11C78010F9499F0BC
:10E34000F70181937F01EC15FD05C1F78B818130C9
:10E3500071F68C818A3A59F690E1E92E97E2F92E0E
:10E360000BC08FE891E00197F1F700C0000091E049
:10E37000E91AF10809F4BBCF40E050E060E070E436
:10E3800089EE0F9409F18111ECCF60E070E0AB01F0
:10E390008AE70F9409F18111AACF0F9499F0F8013F
:10E3A00081938F01EC15FD05C1F789811CE086FD85
:10E3B0009FCF14E09DCF60E070E0AB0189EE0F9439
:10E3C00009F101E4823010F409EE12E080E1E82E58
:10E3D00087E2F82E60E070E0AB01802F0F9409F126
:10E3E00081110AC040E052E060E070E080E50F94E7
:10E3F00009F181117CCF7CCF8FE891E00197F1F793
:10E4000000C0000091E0E91AF10809F470CFE2CFF2
:10E41000CF92DF92EF92FF920F931F93CF93DF93F0
:10E420007C01E90168018091980483FD08C0762F82
:10E43000652F542F40E0440F551F661F771F81E55D
:10E440000F9409F1811571F001E010E00F9498F03C
:10E45000C801DF91CF911F910F91FF90EF90DF9056
:10E46000CF90089500E41CE90F9499F08E3F29F0B5
:10E4700020F001501040C1F7E7CF31F702E012E081
:10E480000C191D090C1B1D0B2097A1F4E701CC0DE5
:10E49000DD1D67018FEFE81AF80A0F9499F0F60175
:10E4A0008083EC16FD06A9F70F9499F001501040F7
:10E4B000D9F7CCCF0F9499F02197E6CF0F931F9304
:10E4C000CF93DF9300D00F92CDB7DEB782309105A6
:10E4D00058F481E090E00F900F900F900F90DF9133
:10E4E000CF911F910F910895E0919904F0919A04B2
:10E4F000268137818217930760F72081223049F700
:10E50000282F30E0220F331F892F90E0408551855E
:10E5100062857385480F591F611D711D02E010E06F
:10E52000CE0101960F9408F2892B99F689819A8180
:10E53000D2CFE0919904F0919A04309751F0818103
:10E5400080FF0AC0148A158A168A178A80E090E034
:10E55000089585E090E0089584E090E00895CF92DA
:10E56000DF92EF92FF920F931F93CF93DF93EC0113
:10E570006A017B0102E010E02EEF31E00F9408F217
:10E58000892BF1F48881998185359A4AD9F426E35B
:10E5900030E0A601B701CE010F9408F2892BA1F457
:10E5A00081E0288139812634314409F480E0DF910B
:10E5B000CF911F910F91FF90EF90DF90CF90089532
:10E5C00083E0F5CF82E0F3CF81E0F1CF3F924F922D
:10E5D0005F926F927F928F929F92AF92BF92CF92F3
:10E5E000DF92EF92FF920F931F93CF93DF93CDB7FC
:10E5F000DEB7A8970FB6F894DEBF0FBECDBF7C0183
:10E600001092990410929A040F944FF102E010E0D6
:10E610008111BEC01D821A861B8660E070E0AB01CE
:10E620006E012FEFC21AD20AC6010F94AFF2560143
:10E63000813009F49FC03D812A859B85612C712C16
:10E640002301833009F4A2C08111BEC03D832A8713
:10E650009B8704E210E02DE030E0A201B301C50188
:10E660000F9408F28C01892B09F090C0ED818A8506
:10E670009B859C0140E050E0892B21F4288D398D49
:10E680004A8D5B8DAC81B0E00F947DF74B015C014E
:10E690008A819B819C0140E050E02DA33EA31FA2F4
:10E6A00018A6480E591E611C711CD70118964D9270
:10E6B0005D926D927D9239801A973C928E812E2FB9
:10E6C000382F69011296CD92DD92EF81F885CF0146
:10E6D000DA01EF2B21F48C899D89AE89BF8924E072
:10E6E000D694C7942A95E1F72DA13EA14FA158A534
:10E6F0002C0D3D1D411D511D280D391D4A1D5B1D51
:10E70000BC01CD01621B730B840B950B232D30E0F4
:10E7100040E050E00F945BF7C901DA010296A11DB9
:10E72000B11DF70186839783885F9F40A109B109D6
:10E730008F3F9F4EA105B10508F046C082E0D7018A
:10E740008C93840C951CA61CB71CF70184869586B7
:10E75000A686B7868C0C9D1CA11CB11C50968D9270
:10E760009D92AD92BD9253971C92E0929904F092C3
:10E770009A040EC000E110E02EEB31E060E070E0A2
:10E78000AB01C6010F9408F2892BD9F001E010E02B
:10E79000C801A8960FB6F894DEBF0FBECDBFDF91BB
:10E7A000CF911F910F91FF90EF90DF90CF90BF908E
:10E7B000AF909F908F907F906F905F904F903F9021
:10E7C00008958D81811103C006E010E0E1CF4984F6
:10E7D0005A846B847C84A201B301C6010F94AFF20A
:10E7E0003D812A859B852DCF8F929F92AF92BF92BC
:10E7F000CF92DF92EF92FF920F931F93CF93DF930D
:10E800005C014A01C0919904D0919A04FA011082E6
:10E81000118295E0E92EF12C209709F446C08981F8
:10E8200080FF91C0888D998DAA8DBB8D0C891D8923
:10E830002E893F89801B910BA20BB30B861797077C
:10E84000A105B10508F4BC017B01E114F10469F1F3
:10E850008C899D89AE89BF89AC01517060E070E000
:10E86000452B462B472BE9F51A811150492F5A2F7A
:10E870006B2F669557954795142359F4892B8A2B4E
:10E880008B2B09F52C8D3D8D2230310550F02E8FCC
:10E890003F8F8E8D9F8D0F94B0F000977040604039
:10E8A000C1F4198251E0E52EF12CC701DF91CF911F
:10E8B0001F910F91FF90EF90DF90CF90BF90AF909E
:10E8C0009F908F9008958E8D9F8D0F945EF29C0186
:10E8D000DBCF610F711D811D911D68A379A38AA3F0
:10E8E0009BA32C893D893170C12C42E0D42EC21AE1
:10E8F000D30AEC14FD0408F4670148A159A16AA1E8
:10E900007BA18601C5010F9408F2892B51F68C89F1
:10E910009D89AE89BF898C0D9D1DA11DB11D8C8B5C
:10E920009D8BAE8BBF8BEC18FD08F401808191812B
:10E930008C0D9D1D80839183A114B10409F485CFB2
:10E94000AC0CBD1C82CF84E0E82EF12CAECFCDB74D
:10E95000DEB7CA59D1090FB6F894DEBF0FBECDBFDE
:10E96000F894109280008CE08093810083E294EF11
:10E97000909389008093880080916F0082608093DB
:10E980006F00389A85E00F94F0F00FB6F894A895D0
:10E9900080916000886180936000109260000FBEDB
:10E9A0001092C50087E68093C4008091C0008D7FDF
:10E9B0008093C00088E18093C10086E08093C2000C
:10E9C00080E093E00F94D4F00F944FF1811531F073
:10E9D00087E193E00F94D4F0409AFFCF8BE994E065
:10E9E0000F94E6F2811531F086E393E00F94D4F0B2
:10E9F000409AFFCF82E00F94F0F08E010F571F4F27
:10EA00008DE0E6E6F3E0D80101900D928A95E1F7FA
:10EA1000809100107801853A09F048C04CE050E040
:10EA200061E070E1C8010F94A3F71092001081E536
:10EA300093E00F94D4F0C8010F94D4F084E294E0F2
:10EA40000F94D4F0F8018081811539F06EE673E0FF
:10EA5000C8010F94B2F7892B49F466E673E0C70149
:10EA60000F949CF783E793E00F94D4F0C09099043F
:10EA7000D0909A04C114D10409F471C1F601118235
:10EA8000C7015C01FC01208101962032D1F32F32B5
:10EA900009F45C01F5018081803258F4F601868129
:10EAA0009781892B09F076C011E05AC18AE993E079
:10EAB000DBCFE12CF12C1E01FCE02F0E311C4BE0D2
:10EAC00050E060E270E0CE0182579F4F0F9495F7BF
:10EAD00020E0E0E088E091E09E0FC656DF4F98838B
:10EAE000CA59D040EA0DFB2DF11D90819132C0F042
:10EAF0009F32B1F09E3209F44DC1281788F4FE010F
:10EB0000E257FF4FE20FF11D9083982F81E0820FB3
:10EB1000282FC656DF4FE881CA59D040892FDBCF56
:10EB200081E0913208F080E0C756DF4F8883C959F1
:10EB3000D040E1E0EE16F10409F4B6CFE09199047B
:10EB4000F0919A0486819781E816F90608F0ACCF17
:10EB5000E114F10409F1C7010F94B0F02B013C015D
:10EB6000812C912C282D2F7030E050E2359F302DD4
:10EB7000259F202D3129112400E210E0A201B301CC
:10EB8000CE0101960F9408F2892B09F08DCF89816F
:10EB9000811107C013E0E4C04484558466847784FF
:10EBA000DFCF8C8583FD09C0FE013196DE01A257BF
:10EBB000BF4F20819C91291711F1FFEF8F1A9F0AF7
:10EBC00049F3411451046104710421F3882D8F70BD
:10EBD00090E0892B39F60091990410919A042FEF57
:10EBE000421A520A620A720AF801E114F104F9F4B5
:10EBF000848195818816990608F4B4CFCBCF3196DD
:10EC00001196E215F305A9F6C756DF4F9881C95949
:10EC1000D0409111F8C084FFBDCFC656DF4FF881B8
:10EC2000CA59D040AF0EB11CEB8CFC8C48CF22816E
:10EC30002150330BC40144E0969587954A95E1F73E
:10EC400082239323892B09F08DCFC7010F945EF2A5
:10EC50007C01029708F428CFF80186819781E81695
:10EC6000F90608F097CFC7010F94B0F02B013C01D3
:10EC700079CFF894F999FECFF601EBBE10935700C7
:10EC8000E89507B600FCFDCFEFE3FFE13197F1F720
:10EC900000C00000F894F999FECFF601EBBE109386
:10ECA0005700E89507B600FCFDCFA0E0B2E0A60152
:10ECB000B7018D912C911197982F92239F3F09F4C2
:10ECC0004CC0922F0C01FA016BBFA0925700E8953F
:10ECD000112412964E5F5F4F6F4F7F4FF3E0A030CD
:10ECE000BF0739F7F601EBBEB0925700E89507B6BB
:10ECF00000FCFDCF00935700E8958FE39FE101975B
:10ED0000F1F700C000009FEFD91AE90AF90A9A81C9
:10ED1000911156C080E090E00F94E6F204B603FE35
:10ED200007C080E094E00F94D4F084B7877F84BF5D
:10ED300087E294E00F94D4F08FE39CE90197F1F718
:10ED400000C000008FEF91E29EBF8DBF789480E0FD
:10ED500090E0BC010F94A8F0FFCF8FEFB3CF15E088
:10ED60008FED93E00F94D4F080E30F94CDF080E327
:10ED70000F94CDF080E30F94CDF080E30F94CDF0AD
:10ED800080E3810F0F94CDF084E294E00F94D4F0EF
:10ED9000409AFFCF883009F0C3CE9BE0B9CE8AE419
:10EDA00094E02EC083E00F94F0F00F9499F2E12CE0
:10EDB000F12C670113E081E0A82E85E0B82E01E177
:10EDC00040E051E06FEF70E080E092E00F9495F743
:10EDD0008FE39FE10197F1F700C00000AE014F5FA4
:10EDE0005F4F60E071E080E092E00F94F4F38111F6
:10EDF00005C089819A81892B09F03BCF83EC93E090
:10EE00000F94D4F087CF8981811509F4C3CE8C8506
:10EE100084FDC0CE8B8D9C8DF601848F958F8D8D5A
:10EE20009E8DAF8DB8A1808F918FA28FB38F148AE2
:10EE3000158A168A178A81E081830F9499F2AE01B0
:10EE400042575F4F60E870E0CE0101960F94F4F3F3
:10EE50008C01892B09F0A3CFC257DF4FE880F980DE
:10EE6000CE58D040E114F10409F499CFFBE1EF1A38
:10EE7000F1084BE150E06DE774E0CE010196800FA0
:10EE8000911F0F9488F7892B09F48CCF0F5F1F4FC8
:10EE9000E016F10670F7D3CFA29FB001B39FC00177
:10EEA000A39F700D811D1124911DB29F700D811DB6
:10EEB0001124911D0895A1E21A2EAA1BBB1BFD016E
:10EEC0000DC0AA1FBB1FEE1FFF1FA217B307E40749
:10EED000F50720F0A21BB30BE40BF50B661F771FA1
:10EEE000881F991F1A9469F7609570958095909581
:10EEF0009B01AC01BD01CF0108950F944CF7A59F74
:10EF0000900DB49F900DA49F800D911D1124089524
:10EF1000FB01DC0104C08D910190801921F4415066
:10EF20005040C8F7881B990B0895DC0101C06D9310
:10EF300041505040E0F70895FB01DC0101900D9233
:10EF40000020E1F70895FB01DC014150504048F0FA
:10EF500001900D920020C9F701C01D924150504010
:10EF6000E0F70895FB0151915523A9F0BF01DC01A1
:10EF70004D9145174111E1F759F4CD010190002061
:10EF800049F04D9140154111C9F3FB014111EFCFFB
:0CEF900081E090E001970895F894FFCF15
:10EF9C00FF00000000000000000000000000000066
:10EFAC000000000000000000000000000000000055
:10EFBC000000000000000000000000000000000045
:10EFCC000000000000000000000000000000000035
:10EFDC000000000000000000000000000000000025
:10EFEC000000000000000000000000000000000015
:10EFFC000000000000000000000000000000000005
:10F00C0000000000000000000000000000000000F4
:10F01C0000000000000000000000000000000000E4
:10F02C0000000000000000000000000000000000D4
:10F03C0000000000000000000000000000000000C4
:10F04C0000000000000000000000000000000000B4
:10F05C0000000000000000000000000000000000A4
:10F06C000000000000000000000000000000000094
:10F07C000000000000000000000000000000000084
:10F08C000000000000000000000000000000000074
:10F09C00426F6F746C6F616465723A205374617265
:10F0AC0074696E670D0A00426F6F746C6F616465F2
:10F0BC00723A204469736B20696E697420666169C9
:10F0CC006C65640D0A00426F6F746C6F61646572DD
:10F0DC003A204D6F756E74206661696C65640D0A1B
:10F0EC0000426F6F746C6F616465723A204C6F6193
:10F0FC0064696E6720004C41554E434845522E4280
:10F10C00494E00426F6F746C6F616465723A2046B1
:10F11C00616C6C6261636B20746F204C41554E4383
:10F12C004845522E42494E0D0A00426F6F746C6F67
:10F13C00616465723A205573696E67206465666117
:10F14C00756C74204C41554E434845522E42494EE5
:10F15C000D0A00426F6F746C6F616465723A2052D5
:10F16C006561642066696E69736865640D0A0042A6
:10F17C006F6F746C6F616465723A204F70656E20AE
:10F18C006661696C65642C206572726F723A20003E
:10F19C005741524E494E473A205761746368646F29
:10F1AC006720726573657420666C616720697320D3
:10F1BC00736574210D0A00426F6F746C6F61646526
:10F1CC00723A205374617274696E67206170706C4E
:10F1DC0069636174696F6E0D0A004552524F523A61
:10F1EC00204D697373696E67206B65726E656C2058
:10F1FC007061747465726E212072657475726E2004
:10F20C00626F6F746C6F616465720D0A004B4552CE
:10F21C004E454C5F4C49423A4255494C445F4E5521
:08F22C004D4245523A302E31EB
:040000033000E000E9
:00000001FF
